{
  "contractName": "Test",
  "abi": [
    {
      "inputs": [],
      "name": "numData",
      "outputs": [
        {
          "internalType": "uint256",
          "name": "",
          "type": "uint256"
        }
      ],
      "stateMutability": "view",
      "type": "function",
      "constant": true
    },
    {
      "inputs": [
        {
          "internalType": "uint256",
          "name": "_numData",
          "type": "uint256"
        }
      ],
      "name": "setNumData",
      "outputs": [],
      "stateMutability": "nonpayable",
      "type": "function"
    },
    {
      "inputs": [],
      "name": "getNumData",
      "outputs": [
        {
          "internalType": "uint256",
          "name": "",
          "type": "uint256"
        }
      ],
      "stateMutability": "view",
      "type": "function",
      "constant": true
    }
  ],
  "bytecode": "0x608060405234801561001057600080fd5b5061017f806100206000396000f3fe608060405234801561001057600080fd5b50600436106100415760003560e01c80632971763014610046578063610638a414610064578063c5c7f7f614610082575b600080fd5b61004e61009e565b60405161005b91906100d0565b60405180910390f35b61006c6100a7565b60405161007991906100d0565b60405180910390f35b61009c6004803603810190610097919061011c565b6100ad565b005b60008054905090565b60005481565b8060008190555050565b6000819050919050565b6100ca816100b7565b82525050565b60006020820190506100e560008301846100c1565b92915050565b600080fd5b6100f9816100b7565b811461010457600080fd5b50565b600081359050610116816100f0565b92915050565b600060208284031215610132576101316100eb565b5b600061014084828501610107565b9150509291505056fea2646970667358221220444074f37a0195787cbf25ec8fc046e74230f2015bac27f697792baca2e8d31564736f6c634300080c0033",
  "immutableReferences": {},
  "source": "// SPDX-License-Identifier: MIT\r\npragma solidity ^0.8.0;\r\n\r\ncontract Test {\r\n    uint public numData;\r\n\r\n    function setNumData(uint _numData) public {\r\n        numData = _numData;\r\n    }\r\n\r\n    function getNumData() public view returns(uint){\r\n        return numData;\r\n    }\r\n\r\n}",
  "sourcePath": "C:\\Users\\quoti\\Desktop\\LocalRepo\\__PROGRAMMING__\\CodeCloud\\ETH DEV\\github\\workspace\\truffle\\contracts\\Test.sol",
  "compiler": {
    "name": "solc",
    "version": "0.8.12+commit.f00d7308.Emscripten.clang"
  },
  "schemaVersion": "3.4.6",
  "updatedAt": "2022-05-10T03:18:04.989Z",
  "networkType": "ethereum",
  "devdoc": {
    "kind": "dev",
    "methods": {},
    "version": 1
  },
  "userdoc": {
    "kind": "user",
    "methods": {},
    "version": 1
  }
}